{
    "abi": [
        {
            "type": "constructor",
            "inputs": [
                {
                    "name": "router",
                    "type": "address",
                    "internalType": "address"
                }
            ],
            "stateMutability": "nonpayable"
        },
        {
            "type": "function",
            "name": "acceptOwnership",
            "inputs": [],
            "outputs": [],
            "stateMutability": "nonpayable"
        },
        {
            "type": "function",
            "name": "ccipBnMAddressByChainSelector",
            "inputs": [
                {
                    "name": "",
                    "type": "uint256",
                    "internalType": "uint256"
                }
            ],
            "outputs": [
                {
                    "name": "",
                    "type": "address",
                    "internalType": "address"
                }
            ],
            "stateMutability": "view"
        },
        {
            "type": "function",
            "name": "ccipReceive",
            "inputs": [
                {
                    "name": "message",
                    "type": "tuple",
                    "internalType": "struct Client.Any2EVMMessage",
                    "components": [
                        {
                            "name": "messageId",
                            "type": "bytes32",
                            "internalType": "bytes32"
                        },
                        {
                            "name": "sourceChainSelector",
                            "type": "uint64",
                            "internalType": "uint64"
                        },
                        {
                            "name": "sender",
                            "type": "bytes",
                            "internalType": "bytes"
                        },
                        {
                            "name": "data",
                            "type": "bytes",
                            "internalType": "bytes"
                        },
                        {
                            "name": "destTokenAmounts",
                            "type": "tuple[]",
                            "internalType": "struct Client.EVMTokenAmount[]",
                            "components": [
                                {
                                    "name": "token",
                                    "type": "address",
                                    "internalType": "address"
                                },
                                {
                                    "name": "amount",
                                    "type": "uint256",
                                    "internalType": "uint256"
                                }
                            ]
                        }
                    ]
                }
            ],
            "outputs": [],
            "stateMutability": "nonpayable"
        },
        {
            "type": "function",
            "name": "chainIdByChainSelector",
            "inputs": [
                {
                    "name": "",
                    "type": "uint64",
                    "internalType": "uint64"
                }
            ],
            "outputs": [
                {
                    "name": "",
                    "type": "uint256",
                    "internalType": "uint256"
                }
            ],
            "stateMutability": "view"
        },
        {
            "type": "function",
            "name": "destinationChainCCSwapAddress",
            "inputs": [
                {
                    "name": "",
                    "type": "uint256",
                    "internalType": "uint256"
                }
            ],
            "outputs": [
                {
                    "name": "",
                    "type": "address",
                    "internalType": "address"
                }
            ],
            "stateMutability": "view"
        },
        {
            "type": "function",
            "name": "getRouter",
            "inputs": [],
            "outputs": [
                {
                    "name": "",
                    "type": "address",
                    "internalType": "address"
                }
            ],
            "stateMutability": "view"
        },
        {
            "type": "function",
            "name": "linkTokenAddressByChainSelector",
            "inputs": [
                {
                    "name": "",
                    "type": "uint256",
                    "internalType": "uint256"
                }
            ],
            "outputs": [
                {
                    "name": "",
                    "type": "address",
                    "internalType": "address"
                }
            ],
            "stateMutability": "view"
        },
        {
            "type": "function",
            "name": "owner",
            "inputs": [],
            "outputs": [
                {
                    "name": "",
                    "type": "address",
                    "internalType": "address"
                }
            ],
            "stateMutability": "view"
        },
        {
            "type": "function",
            "name": "setChainConfig",
            "inputs": [
                {
                    "name": "blockChainId",
                    "type": "uint256",
                    "internalType": "uint256"
                },
                {
                    "name": "ccswap",
                    "type": "address",
                    "internalType": "address"
                },
                {
                    "name": "uniswapRouter",
                    "type": "address",
                    "internalType": "address"
                },
                {
                    "name": "linkToken",
                    "type": "address",
                    "internalType": "address"
                },
                {
                    "name": "ccipBnM",
                    "type": "address",
                    "internalType": "address"
                }
            ],
            "outputs": [],
            "stateMutability": "nonpayable"
        },
        {
            "type": "function",
            "name": "setChainIdByChainSelector",
            "inputs": [
                {
                    "name": "chainSelector",
                    "type": "uint64",
                    "internalType": "uint64"
                },
                {
                    "name": "chainId",
                    "type": "uint256",
                    "internalType": "uint256"
                }
            ],
            "outputs": [],
            "stateMutability": "nonpayable"
        },
        {
            "type": "function",
            "name": "supportsInterface",
            "inputs": [
                {
                    "name": "interfaceId",
                    "type": "bytes4",
                    "internalType": "bytes4"
                }
            ],
            "outputs": [
                {
                    "name": "",
                    "type": "bool",
                    "internalType": "bool"
                }
            ],
            "stateMutability": "view"
        },
        {
            "type": "function",
            "name": "swap",
            "inputs": [
                {
                    "name": "destinationChainSelector",
                    "type": "uint64",
                    "internalType": "uint64"
                },
                {
                    "name": "amount",
                    "type": "uint256",
                    "internalType": "uint256"
                },
                {
                    "name": "token0",
                    "type": "address",
                    "internalType": "address"
                },
                {
                    "name": "token1",
                    "type": "address",
                    "internalType": "address"
                },
                {
                    "name": "gasLimit",
                    "type": "uint256",
                    "internalType": "uint256"
                }
            ],
            "outputs": [
                {
                    "name": "messageId",
                    "type": "bytes32",
                    "internalType": "bytes32"
                }
            ],
            "stateMutability": "nonpayable"
        },
        {
            "type": "function",
            "name": "transferOwnership",
            "inputs": [
                {
                    "name": "to",
                    "type": "address",
                    "internalType": "address"
                }
            ],
            "outputs": [],
            "stateMutability": "nonpayable"
        },
        {
            "type": "function",
            "name": "uniswapRouterAddress",
            "inputs": [
                {
                    "name": "",
                    "type": "uint256",
                    "internalType": "uint256"
                }
            ],
            "outputs": [
                {
                    "name": "",
                    "type": "address",
                    "internalType": "address"
                }
            ],
            "stateMutability": "view"
        },
        {
            "type": "event",
            "name": "CCSwapInitiated",
            "inputs": [
                {
                    "name": "messageId",
                    "type": "bytes32",
                    "indexed": true,
                    "internalType": "bytes32"
                },
                {
                    "name": "destinationChainSelector",
                    "type": "uint64",
                    "indexed": true,
                    "internalType": "uint64"
                },
                {
                    "name": "sender",
                    "type": "address",
                    "indexed": true,
                    "internalType": "address"
                },
                {
                    "name": "token0",
                    "type": "address",
                    "indexed": false,
                    "internalType": "address"
                },
                {
                    "name": "token1",
                    "type": "address",
                    "indexed": false,
                    "internalType": "address"
                },
                {
                    "name": "amountToken0",
                    "type": "uint256",
                    "indexed": false,
                    "internalType": "uint256"
                }
            ],
            "anonymous": false
        },
        {
            "type": "event",
            "name": "OwnershipTransferRequested",
            "inputs": [
                {
                    "name": "from",
                    "type": "address",
                    "indexed": true,
                    "internalType": "address"
                },
                {
                    "name": "to",
                    "type": "address",
                    "indexed": true,
                    "internalType": "address"
                }
            ],
            "anonymous": false
        },
        {
            "type": "event",
            "name": "OwnershipTransferred",
            "inputs": [
                {
                    "name": "from",
                    "type": "address",
                    "indexed": true,
                    "internalType": "address"
                },
                {
                    "name": "to",
                    "type": "address",
                    "indexed": true,
                    "internalType": "address"
                }
            ],
            "anonymous": false
        },
        {
            "type": "error",
            "name": "InvalidRouter",
            "inputs": [
                {
                    "name": "router",
                    "type": "address",
                    "internalType": "address"
                }
            ]
        }
    ],
    "bytecode": {
        "object": "0x60a06040523480156200001157600080fd5b506040516200301a3803806200301a833981810160405281019062000037919062000382565b3380600083600073ffffffffffffffffffffffffffffffffffffffff168173ffffffffffffffffffffffffffffffffffffffff1603620000b15760006040517fd7f73334000000000000000000000000000000000000000000000000000000008152600401620000a89190620003c5565b60405180910390fd5b8073ffffffffffffffffffffffffffffffffffffffff1660808173ffffffffffffffffffffffffffffffffffffffff168152505050600073ffffffffffffffffffffffffffffffffffffffff168273ffffffffffffffffffffffffffffffffffffffff160362000158576040517f08c379a00000000000000000000000000000000000000000000000000000000081526004016200014f9062000443565b60405180910390fd5b816000806101000a81548173ffffffffffffffffffffffffffffffffffffffff021916908373ffffffffffffffffffffffffffffffffffffffff160217905550600073ffffffffffffffffffffffffffffffffffffffff168173ffffffffffffffffffffffffffffffffffffffff1614620001df57620001de81620001e960201b60201c565b5b50505050620004d7565b3373ffffffffffffffffffffffffffffffffffffffff168173ffffffffffffffffffffffffffffffffffffffff16036200025a576040517f08c379a00000000000000000000000000000000000000000000000000000000081526004016200025190620004b5565b60405180910390fd5b80600160006101000a81548173ffffffffffffffffffffffffffffffffffffffff021916908373ffffffffffffffffffffffffffffffffffffffff1602179055508073ffffffffffffffffffffffffffffffffffffffff1660008054906101000a900473ffffffffffffffffffffffffffffffffffffffff1673ffffffffffffffffffffffffffffffffffffffff167fed8889f560326eb138920d842192f0eb3dd22b4f139c87a2c57538e05bae127860405160405180910390a350565b600080fd5b600073ffffffffffffffffffffffffffffffffffffffff82169050919050565b60006200034a826200031d565b9050919050565b6200035c816200033d565b81146200036857600080fd5b50565b6000815190506200037c8162000351565b92915050565b6000602082840312156200039b576200039a62000318565b5b6000620003ab848285016200036b565b91505092915050565b620003bf816200033d565b82525050565b6000602082019050620003dc6000830184620003b4565b92915050565b600082825260208201905092915050565b7f43616e6e6f7420736574206f776e657220746f207a65726f0000000000000000600082015250565b60006200042b601883620003e2565b91506200043882620003f3565b602082019050919050565b600060208201905081810360008301526200045e816200041c565b9050919050565b7f43616e6e6f74207472616e7366657220746f2073656c66000000000000000000600082015250565b60006200049d601783620003e2565b9150620004aa8262000465565b602082019050919050565b60006020820190508181036000830152620004d0816200048e565b9050919050565b608051612b27620004f360003960006107df0152612b276000f3fe608060405234801561001057600080fd5b50600436106100ea5760003560e01c806399ebe8281161008c578063d18e0c7211610066578063d18e0c7214610249578063ef4c7f0014610279578063f2fde38b146102a9578063fa15df1d146102c5576100ea565b806399ebe828146101cb578063b0f479a1146101fb578063b87c05ec14610219576100ea565b8063709b6f03116100c8578063709b6f031461016b57806379ba50971461018757806385572ffb146101915780638da5cb5b146101ad576100ea565b806301ffc9a7146100ef578063408d9ecd1461011f578063471f29e41461013b575b600080fd5b6101096004803603810190610104919061192d565b6102f5565b6040516101169190611975565b60405180910390f35b61013960048036038101906101349190611a06565b6103c7565b005b61015560048036038101906101509190611a46565b6103f7565b6040516101629190611ab4565b60405180910390f35b61018560048036038101906101809190611afb565b61042a565b005b61018f610579565b005b6101ab60048036038101906101a69190611b9a565b61070e565b005b6101b561079a565b6040516101c29190611ab4565b60405180910390f35b6101e560048036038101906101e09190611be3565b6107c3565b6040516101f29190611c1f565b60405180910390f35b6102036107db565b6040516102109190611ab4565b60405180910390f35b610233600480360381019061022e9190611c3a565b610803565b6040516102409190611cce565b60405180910390f35b610263600480360381019061025e9190611a46565b610cd8565b6040516102709190611ab4565b60405180910390f35b610293600480360381019061028e9190611a46565b610d0b565b6040516102a09190611ab4565b60405180910390f35b6102c360048036038101906102be9190611ce9565b610d3e565b005b6102df60048036038101906102da9190611a46565b610d52565b6040516102ec9190611ab4565b60405180910390f35b60007f85572ffb000000000000000000000000000000000000000000000000000000007bffffffffffffffffffffffffffffffffffffffffffffffffffffffff1916827bffffffffffffffffffffffffffffffffffffffffffffffffffffffff191614806103c057507f01ffc9a7000000000000000000000000000000000000000000000000000000007bffffffffffffffffffffffffffffffffffffffffffffffffffffffff1916827bffffffffffffffffffffffffffffffffffffffffffffffffffffffff1916145b9050919050565b80600b60008467ffffffffffffffff1667ffffffffffffffff168152602001908152602001600020819055505050565b60076020528060005260406000206000915054906101000a900473ffffffffffffffffffffffffffffffffffffffff1681565b836007600087815260200190815260200160002060006101000a81548173ffffffffffffffffffffffffffffffffffffffff021916908373ffffffffffffffffffffffffffffffffffffffff160217905550826008600087815260200190815260200160002060006101000a81548173ffffffffffffffffffffffffffffffffffffffff021916908373ffffffffffffffffffffffffffffffffffffffff160217905550816009600087815260200190815260200160002060006101000a81548173ffffffffffffffffffffffffffffffffffffffff021916908373ffffffffffffffffffffffffffffffffffffffff16021790555080600a600087815260200190815260200160002060006101000a81548173ffffffffffffffffffffffffffffffffffffffff021916908373ffffffffffffffffffffffffffffffffffffffff1602179055505050505050565b600160009054906101000a900473ffffffffffffffffffffffffffffffffffffffff1673ffffffffffffffffffffffffffffffffffffffff163373ffffffffffffffffffffffffffffffffffffffff1614610609576040517f08c379a000000000000000000000000000000000000000000000000000000000815260040161060090611d73565b60405180910390fd5b60008060009054906101000a900473ffffffffffffffffffffffffffffffffffffffff169050336000806101000a81548173ffffffffffffffffffffffffffffffffffffffff021916908373ffffffffffffffffffffffffffffffffffffffff1602179055506000600160006101000a81548173ffffffffffffffffffffffffffffffffffffffff021916908373ffffffffffffffffffffffffffffffffffffffff1602179055503373ffffffffffffffffffffffffffffffffffffffff168173ffffffffffffffffffffffffffffffffffffffff167f8be0079c531659141344cd1fd0a4f28419497f9722a3daafe3b4186f6b6457e060405160405180910390a350565b6107166107db565b73ffffffffffffffffffffffffffffffffffffffff163373ffffffffffffffffffffffffffffffffffffffff161461078557336040517fd7f7333400000000000000000000000000000000000000000000000000000000815260040161077c9190611ab4565b60405180910390fd5b6107978161079290612107565b610d85565b50565b60008060009054906101000a900473ffffffffffffffffffffffffffffffffffffffff16905090565b600b6020528060005260406000206000915090505481565b60007f0000000000000000000000000000000000000000000000000000000000000000905090565b600061081184333088610f9e565b61084f846008600046815260200190815260200160002060009054906101000a900473ffffffffffffffffffffffffffffffffffffffff1687611027565b60006040518060e001604052808673ffffffffffffffffffffffffffffffffffffffff168152602001600a600046815260200190815260200160002060009054906101000a900473ffffffffffffffffffffffffffffffffffffffff1673ffffffffffffffffffffffffffffffffffffffff1681526020016101f462ffffff1681526020013073ffffffffffffffffffffffffffffffffffffffff16815260200187815260200160c8886109039190612178565b8861090e91906121a9565b8152602001600073ffffffffffffffffffffffffffffffffffffffff16815250905060006008600046815260200190815260200160002060009054906101000a900473ffffffffffffffffffffffffffffffffffffffff1673ffffffffffffffffffffffffffffffffffffffff166304e45aaf836040518263ffffffff1660e01b815260040161099e91906122b6565b6020604051808303816000875af11580156109bd573d6000803e3d6000fd5b505050506040513d601f19601f820116820180604052508101906109e191906122e6565b90506109eb6117b2565b9150610a32600a600046815260200190815260200160002060009054906101000a900473ffffffffffffffffffffffffffffffffffffffff16610a2c6107db565b83611027565b60003386604051602001610a47929190612313565b60405160208183030381529060405290506000600b60008b67ffffffffffffffff1667ffffffffffffffff1681526020019081526020016000205490506000610afa8b6007600085815260200190815260200160002060009054906101000a900473ffffffffffffffffffffffffffffffffffffffff166009600046815260200190815260200160002060009054906101000a900473ffffffffffffffffffffffffffffffffffffffff168a888861117c565b90506000610b066107db565b905060008173ffffffffffffffffffffffffffffffffffffffff166320487ded8e856040518363ffffffff1660e01b8152600401610b45929190612533565b602060405180830381865afa158015610b62573d6000803e3d6000fd5b505050506040513d601f19601f82011682018060405250810190610b8691906122e6565b90506009600046815260200190815260200160002060009054906101000a900473ffffffffffffffffffffffffffffffffffffffff1673ffffffffffffffffffffffffffffffffffffffff1663095ea7b3610bdf6107db565b836040518363ffffffff1660e01b8152600401610bfd929190612563565b6020604051808303816000875af1158015610c1c573d6000803e3d6000fd5b505050506040513d601f19601f82011682018060405250810190610c4091906125b8565b50610c496107db565b73ffffffffffffffffffffffffffffffffffffffff166396f4e9f98e856040518363ffffffff1660e01b8152600401610c83929190612533565b6020604051808303816000875af1158015610ca2573d6000803e3d6000fd5b505050506040513d601f19601f82011682018060405250810190610cc691906125fa565b97505050505050505095945050505050565b60086020528060005260406000206000915054906101000a900473ffffffffffffffffffffffffffffffffffffffff1681565b600a6020528060005260406000206000915054906101000a900473ffffffffffffffffffffffffffffffffffffffff1681565b610d466112e2565b610d4f81611372565b50565b60096020528060005260406000206000915054906101000a900473ffffffffffffffffffffffffffffffffffffffff1681565b60006008600046815260200190815260200160002060009054906101000a900473ffffffffffffffffffffffffffffffffffffffff1690506000808360600151806020019051810190610dd89190612665565b9150915060008460800151600081518110610df657610df56126a5565b5b602002602001015160200151905060008560800151600081518110610e1e57610e1d6126a5565b5b6020026020010151600001519050610e37818684611027565b60006040518060e00160405280600a600046815260200190815260200160002060009054906101000a900473ffffffffffffffffffffffffffffffffffffffff1673ffffffffffffffffffffffffffffffffffffffff1681526020018573ffffffffffffffffffffffffffffffffffffffff1681526020016101f462ffffff1681526020018673ffffffffffffffffffffffffffffffffffffffff16815260200184815260200160c885610eeb9190612178565b85610ef691906121a9565b8152602001600073ffffffffffffffffffffffffffffffffffffffff1681525090508573ffffffffffffffffffffffffffffffffffffffff166304e45aaf826040518263ffffffff1660e01b8152600401610f5191906122b6565b6020604051808303816000875af1158015610f70573d6000803e3d6000fd5b505050506040513d601f19601f82011682018060405250810190610f9491906122e6565b5050505050505050565b611021846323b872dd60e01b858585604051602401610fbf939291906126d4565b604051602081830303815290604052907bffffffffffffffffffffffffffffffffffffffffffffffffffffffff19166020820180517bffffffffffffffffffffffffffffffffffffffffffffffffffffffff838183161783525050505061149e565b50505050565b6000808473ffffffffffffffffffffffffffffffffffffffff1663095ea7b360e01b858560405160240161105c929190612563565b604051602081830303815290604052907bffffffffffffffffffffffffffffffffffffffffffffffffffffffff19166020820180517bffffffffffffffffffffffffffffffffffffffffffffffffffffffff83818316178352505050506040516110c69190612747565b6000604051808303816000865af19150503d8060008114611103576040519150601f19603f3d011682016040523d82523d6000602084013e611108565b606091505b5091509150818015611136575060008151148061113557508080602001905181019061113491906125b8565b5b5b611175576040517f08c379a000000000000000000000000000000000000000000000000000000000815260040161116c906127aa565b60405180910390fd5b5050505050565b61118461184c565b6000600167ffffffffffffffff8111156111a1576111a0611da9565b5b6040519080825280602002602001820160405280156111da57816020015b6111c7611891565b8152602001906001900390816111bf5790505b5090506040518060400160405280600a600046815260200190815260200160002060009054906101000a900473ffffffffffffffffffffffffffffffffffffffff1673ffffffffffffffffffffffffffffffffffffffff168152602001858152508160008151811061124f5761124e6126a5565b5b60200260200101819052506040518060a00160405280886040516020016112769190611ab4565b60405160208183030381529060405281526020018481526020018281526020018773ffffffffffffffffffffffffffffffffffffffff1681526020016112d2604051806040016040528089815260200160011515815250611566565b8152509150509695505050505050565b60008054906101000a900473ffffffffffffffffffffffffffffffffffffffff1673ffffffffffffffffffffffffffffffffffffffff163373ffffffffffffffffffffffffffffffffffffffff1614611370576040517f08c379a000000000000000000000000000000000000000000000000000000000815260040161136790612816565b60405180910390fd5b565b3373ffffffffffffffffffffffffffffffffffffffff168173ffffffffffffffffffffffffffffffffffffffff16036113e0576040517f08c379a00000000000000000000000000000000000000000000000000000000081526004016113d790612882565b60405180910390fd5b80600160006101000a81548173ffffffffffffffffffffffffffffffffffffffff021916908373ffffffffffffffffffffffffffffffffffffffff1602179055508073ffffffffffffffffffffffffffffffffffffffff1660008054906101000a900473ffffffffffffffffffffffffffffffffffffffff1673ffffffffffffffffffffffffffffffffffffffff167fed8889f560326eb138920d842192f0eb3dd22b4f139c87a2c57538e05bae127860405160405180910390a350565b6000611500826040518060400160405280602081526020017f5361666545524332303a206c6f772d6c6576656c2063616c6c206661696c65648152508573ffffffffffffffffffffffffffffffffffffffff166115e59092919063ffffffff16565b905060008151148061152257508080602001905181019061152191906125b8565b5b611561576040517f08c379a000000000000000000000000000000000000000000000000000000000815260040161155890612914565b60405180910390fd5b505050565b606063181dcf1060e01b826040516024016115819190612972565b604051602081830303815290604052907bffffffffffffffffffffffffffffffffffffffffffffffffffffffff19166020820180517bffffffffffffffffffffffffffffffffffffffffffffffffffffffff83818316178352505050509050919050565b60606115f484846000856115fd565b90509392505050565b606082471015611642576040517f08c379a0000000000000000000000000000000000000000000000000000000008152600401611639906129ff565b60405180910390fd5b6000808673ffffffffffffffffffffffffffffffffffffffff16858760405161166b9190612747565b60006040518083038185875af1925050503d80600081146116a8576040519150601f19603f3d011682016040523d82523d6000602084013e6116ad565b606091505b50915091506116be878383876116ca565b92505050949350505050565b6060831561172c576000835103611724576116e48561173f565b611723576040517f08c379a000000000000000000000000000000000000000000000000000000000815260040161171a90612a6b565b60405180910390fd5b5b829050611737565b6117368383611762565b5b949350505050565b6000808273ffffffffffffffffffffffffffffffffffffffff163b119050919050565b6000825111156117755781518083602001fd5b806040517f08c379a00000000000000000000000000000000000000000000000000000000081526004016117a99190612acf565b60405180910390fd5b6040518060e00160405280600073ffffffffffffffffffffffffffffffffffffffff168152602001600073ffffffffffffffffffffffffffffffffffffffff168152602001600062ffffff168152602001600073ffffffffffffffffffffffffffffffffffffffff1681526020016000815260200160008152602001600073ffffffffffffffffffffffffffffffffffffffff1681525090565b6040518060a00160405280606081526020016060815260200160608152602001600073ffffffffffffffffffffffffffffffffffffffff168152602001606081525090565b6040518060400160405280600073ffffffffffffffffffffffffffffffffffffffff168152602001600081525090565b6000604051905090565b600080fd5b600080fd5b60007fffffffff0000000000000000000000000000000000000000000000000000000082169050919050565b61190a816118d5565b811461191557600080fd5b50565b60008135905061192781611901565b92915050565b600060208284031215611943576119426118cb565b5b600061195184828501611918565b91505092915050565b60008115159050919050565b61196f8161195a565b82525050565b600060208201905061198a6000830184611966565b92915050565b600067ffffffffffffffff82169050919050565b6119ad81611990565b81146119b857600080fd5b50565b6000813590506119ca816119a4565b92915050565b6000819050919050565b6119e3816119d0565b81146119ee57600080fd5b50565b600081359050611a00816119da565b92915050565b60008060408385031215611a1d57611a1c6118cb565b5b6000611a2b858286016119bb565b9250506020611a3c858286016119f1565b9150509250929050565b600060208284031215611a5c57611a5b6118cb565b5b6000611a6a848285016119f1565b91505092915050565b600073ffffffffffffffffffffffffffffffffffffffff82169050919050565b6000611a9e82611a73565b9050919050565b611aae81611a93565b82525050565b6000602082019050611ac96000830184611aa5565b92915050565b611ad881611a93565b8114611ae357600080fd5b50565b600081359050611af581611acf565b92915050565b600080600080600060a08688031215611b1757611b166118cb565b5b6000611b25888289016119f1565b9550506020611b3688828901611ae6565b9450506040611b4788828901611ae6565b9350506060611b5888828901611ae6565b9250506080611b6988828901611ae6565b9150509295509295909350565b600080fd5b600060a08284031215611b9157611b90611b76565b5b81905092915050565b600060208284031215611bb057611baf6118cb565b5b600082013567ffffffffffffffff811115611bce57611bcd6118d0565b5b611bda84828501611b7b565b91505092915050565b600060208284031215611bf957611bf86118cb565b5b6000611c07848285016119bb565b91505092915050565b611c19816119d0565b82525050565b6000602082019050611c346000830184611c10565b92915050565b600080600080600060a08688031215611c5657611c556118cb565b5b6000611c64888289016119bb565b9550506020611c75888289016119f1565b9450506040611c8688828901611ae6565b9350506060611c9788828901611ae6565b9250506080611ca8888289016119f1565b9150509295509295909350565b6000819050919050565b611cc881611cb5565b82525050565b6000602082019050611ce36000830184611cbf565b92915050565b600060208284031215611cff57611cfe6118cb565b5b6000611d0d84828501611ae6565b91505092915050565b600082825260208201905092915050565b7f4d7573742062652070726f706f736564206f776e657200000000000000000000600082015250565b6000611d5d601683611d16565b9150611d6882611d27565b602082019050919050565b60006020820190508181036000830152611d8c81611d50565b9050919050565b600080fd5b6000601f19601f8301169050919050565b7f4e487b7100000000000000000000000000000000000000000000000000000000600052604160045260246000fd5b611de182611d98565b810181811067ffffffffffffffff82111715611e0057611dff611da9565b5b80604052505050565b6000611e136118c1565b9050611e1f8282611dd8565b919050565b600080fd5b611e3281611cb5565b8114611e3d57600080fd5b50565b600081359050611e4f81611e29565b92915050565b600080fd5b600080fd5b600067ffffffffffffffff821115611e7a57611e79611da9565b5b611e8382611d98565b9050602081019050919050565b82818337600083830152505050565b6000611eb2611ead84611e5f565b611e09565b905082815260208101848484011115611ece57611ecd611e5a565b5b611ed9848285611e90565b509392505050565b600082601f830112611ef657611ef5611e55565b5b8135611f06848260208601611e9f565b91505092915050565b600067ffffffffffffffff821115611f2a57611f29611da9565b5b602082029050602081019050919050565b600080fd5b600060408284031215611f5657611f55611d93565b5b611f606040611e09565b90506000611f7084828501611ae6565b6000830152506020611f84848285016119f1565b60208301525092915050565b6000611fa3611f9e84611f0f565b611e09565b90508083825260208201905060408402830185811115611fc657611fc5611f3b565b5b835b81811015611fef5780611fdb8882611f40565b845260208401935050604081019050611fc8565b5050509392505050565b600082601f83011261200e5761200d611e55565b5b813561201e848260208601611f90565b91505092915050565b600060a0828403121561203d5761203c611d93565b5b61204760a0611e09565b9050600061205784828501611e40565b600083015250602061206b848285016119bb565b602083015250604082013567ffffffffffffffff81111561208f5761208e611e24565b5b61209b84828501611ee1565b604083015250606082013567ffffffffffffffff8111156120bf576120be611e24565b5b6120cb84828501611ee1565b606083015250608082013567ffffffffffffffff8111156120ef576120ee611e24565b5b6120fb84828501611ff9565b60808301525092915050565b60006121133683612027565b9050919050565b7f4e487b7100000000000000000000000000000000000000000000000000000000600052601260045260246000fd5b7f4e487b7100000000000000000000000000000000000000000000000000000000600052601160045260246000fd5b6000612183826119d0565b915061218e836119d0565b92508261219e5761219d61211a565b5b828204905092915050565b60006121b4826119d0565b91506121bf836119d0565b92508282039050818111156121d7576121d6612149565b5b92915050565b6121e681611a93565b82525050565b600062ffffff82169050919050565b612204816121ec565b82525050565b612213816119d0565b82525050565b61222281611a73565b82525050565b60e08201600082015161223e60008501826121dd565b50602082015161225160208501826121dd565b50604082015161226460408501826121fb565b50606082015161227760608501826121dd565b50608082015161228a608085018261220a565b5060a082015161229d60a085018261220a565b5060c08201516122b060c0850182612219565b50505050565b600060e0820190506122cb6000830184612228565b92915050565b6000815190506122e0816119da565b92915050565b6000602082840312156122fc576122fb6118cb565b5b600061230a848285016122d1565b91505092915050565b60006040820190506123286000830185611aa5565b6123356020830184611aa5565b9392505050565b61234581611990565b82525050565b600081519050919050565b600082825260208201905092915050565b60005b8381101561238557808201518184015260208101905061236a565b60008484015250505050565b600061239c8261234b565b6123a68185612356565b93506123b6818560208601612367565b6123bf81611d98565b840191505092915050565b600081519050919050565b600082825260208201905092915050565b6000819050602082019050919050565b60408201600082015161240c60008501826121dd565b50602082015161241f602085018261220a565b50505050565b600061243183836123f6565b60408301905092915050565b6000602082019050919050565b6000612455826123ca565b61245f81856123d5565b935061246a836123e6565b8060005b8381101561249b5781516124828882612425565b975061248d8361243d565b92505060018101905061246e565b5085935050505092915050565b600060a08301600083015184820360008601526124c58282612391565b915050602083015184820360208601526124df8282612391565b915050604083015184820360408601526124f9828261244a565b915050606083015161250e60608601826121dd565b50608083015184820360808601526125268282612391565b9150508091505092915050565b6000604082019050612548600083018561233c565b818103602083015261255a81846124a8565b90509392505050565b60006040820190506125786000830185611aa5565b6125856020830184611c10565b9392505050565b6125958161195a565b81146125a057600080fd5b50565b6000815190506125b28161258c565b92915050565b6000602082840312156125ce576125cd6118cb565b5b60006125dc848285016125a3565b91505092915050565b6000815190506125f481611e29565b92915050565b6000602082840312156126105761260f6118cb565b5b600061261e848285016125e5565b91505092915050565b600061263282611a73565b9050919050565b61264281612627565b811461264d57600080fd5b50565b60008151905061265f81612639565b92915050565b6000806040838503121561267c5761267b6118cb565b5b600061268a85828601612650565b925050602061269b85828601612650565b9150509250929050565b7f4e487b7100000000000000000000000000000000000000000000000000000000600052603260045260246000fd5b60006060820190506126e96000830186611aa5565b6126f66020830185611aa5565b6127036040830184611c10565b949350505050565b600081905092915050565b60006127218261234b565b61272b818561270b565b935061273b818560208601612367565b80840191505092915050565b60006127538284612716565b915081905092915050565b7f5341000000000000000000000000000000000000000000000000000000000000600082015250565b6000612794600283611d16565b915061279f8261275e565b602082019050919050565b600060208201905081810360008301526127c381612787565b9050919050565b7f4f6e6c792063616c6c61626c65206279206f776e657200000000000000000000600082015250565b6000612800601683611d16565b915061280b826127ca565b602082019050919050565b6000602082019050818103600083015261282f816127f3565b9050919050565b7f43616e6e6f74207472616e7366657220746f2073656c66000000000000000000600082015250565b600061286c601783611d16565b915061287782612836565b602082019050919050565b6000602082019050818103600083015261289b8161285f565b9050919050565b7f5361666545524332303a204552433230206f7065726174696f6e20646964206e60008201527f6f74207375636365656400000000000000000000000000000000000000000000602082015250565b60006128fe602a83611d16565b9150612909826128a2565b604082019050919050565b6000602082019050818103600083015261292d816128f1565b9050919050565b61293d8161195a565b82525050565b604082016000820151612959600085018261220a565b50602082015161296c6020850182612934565b50505050565b60006040820190506129876000830184612943565b92915050565b7f416464726573733a20696e73756666696369656e742062616c616e636520666f60008201527f722063616c6c0000000000000000000000000000000000000000000000000000602082015250565b60006129e9602683611d16565b91506129f48261298d565b604082019050919050565b60006020820190508181036000830152612a18816129dc565b9050919050565b7f416464726573733a2063616c6c20746f206e6f6e2d636f6e7472616374000000600082015250565b6000612a55601d83611d16565b9150612a6082612a1f565b602082019050919050565b60006020820190508181036000830152612a8481612a48565b9050919050565b600081519050919050565b6000612aa182612a8b565b612aab8185611d16565b9350612abb818560208601612367565b612ac481611d98565b840191505092915050565b60006020820190508181036000830152612ae98184612a96565b90509291505056fea264697066735822122073da320cb0ecbc812a3980d8e74349a156e8d3fa2ccfab57e77c9d370c48284a64736f6c63430008180033",
        "linkReferences": {}
    },
    "methodIdentifiers": {
        "acceptOwnership()": "79ba5097",
        "ccipBnMAddressByChainSelector(uint256)": "ef4c7f00",
        "ccipReceive((bytes32,uint64,bytes,bytes,(address,uint256)[]))": "85572ffb",
        "chainIdByChainSelector(uint64)": "99ebe828",
        "destinationChainCCSwapAddress(uint256)": "471f29e4",
        "getRouter()": "b0f479a1",
        "linkTokenAddressByChainSelector(uint256)": "fa15df1d",
        "owner()": "8da5cb5b",
        "setChainConfig(uint256,address,address,address,address)": "709b6f03",
        "setChainIdByChainSelector(uint64,uint256)": "408d9ecd",
        "supportsInterface(bytes4)": "01ffc9a7",
        "swap(uint64,uint256,address,address,uint256)": "b87c05ec",
        "transferOwnership(address)": "f2fde38b",
        "uniswapRouterAddress(uint256)": "d18e0c72"
    },
    "id": 30
}